:1011AA00438901758CFC758A18D2A9D2AFD28C22D8
:1010F900E4FB7D6B7FD012116A7B077D197FD012CB
:10110900116A7B027D1A7FD012116A7B187D1B7FC1
:0D111900D012116AE4FB7D1C7FD002116A28
:100D0D001210F91211AA120F14EF14B407004003B8
:100D1D00020E82900D2E75F003A4C58325F0C583B8
:100D2D0073020D43020D56020D69020D97020DD887
:100D3D00020E0D020E427D3B7FD0121126EF7F0079
:100D4D00FEC007C0067D3C80247D3D7FD01211265C
:100D5D00EF7F00FEC007C0067D3E80117D3F7FD036
:100D6D00121126EF7F00FEC007C0067D407FD01216
:100D7D001126EFFDD0E0FED0E04DFFEE3395E0FD06
:100D8D00FC1209987B177AB7806D7D417FD01211C7
:100D9D0026EF7F00FEC007C0067D427FD0121126D0
:100DAD00EFFDD0E0FED0E04DFFEE3395E0FDFC12FF
:100DBD0009987B9A7A99795978401208FB7B007AC9
:100DCD005079647845120807020E757D437FD01265
:100DDD001126EF7F00FEC007C0067D447FD01211A3
:100DED0026EFFDD0E0FED0E04DFFEE3395E0FDFCAB
:100DFD001209987B857AEB79D1783F1208FB8068D0
:100E0D007D457FD0121126EF7F00FEC007C0067D05
:100E1D00467FD0121126EFFDD0E0FED0E04DFFEE63
:100E2D003395E0FDFC1209987B857AEB79D1783FFB
:100E3D001208FB80337D477FD0121126EF7F00FE15
:100E4D00C007C0067D487FD0121126EFFDD0E0FE11
:100E5D00D0E04DFFEE3395E0FDFC1209987B857ACD
:100E6D00EB79D1783F1208FB1209D68F158E148DB0
:0B0E7D00138C12C200120F88020D132C
:03000B00020B598C
:100B5900C0E0C0F0C083C082C0D075D000C000C062
:0D0B690001C002C003C004C005C006C007E3
:100B7600758CFC758A180511E5117002051064F470
:100B86007004E51064016003020CF2F510F511D251
:100B960000AF15AE14AD13AC12EC3340057508006A
:100BA6008016AF15AE14AD13AC12120A578F158E00
:100BB600148D138C127508407B407A42790F7800A9
:100BC60012104F74992FF58274113EF583E493F554
:100BD600097B407A42790F7800AF15AE14AD13AC9D
:100BE6001212104FAC00AD01AE02AF037BA07A86A5
:100BF6007901780012104F74992FF58274113EF521
:100C060083E493F50A7BA07A8679017800AF15AE66
:100C160014AD13AC1212104FAC00AD01AE02AF030F
:100C2600E47B107A27F9F812104F74992FF5827425
:100C3600113EF583E4934480F50BE47B107A27F9A3
:100C4600F8AF15AE14AD13AC1212104FAC00AD01D7
:100C5600AE02AF03E47BE87A03F9F812104F7499F9
:100C66002FF58274113EF583E493F50CE47BE87A64
:100C760003F9F8AF15AE14AD13AC1212104FAC0059
:100C8600AD01AE02AF03E47B64FAF9F812104F74BB
:100C9600992FF58274113EF583E493F50DE47B6498
:100CA600FAF9F8AF15AE14AD13AC1212104FAC0032
:100CB600AD01AE02AF03E47B0AFAF9F812104F74E5
:100CC600992FF58274113EF583E493F50EE47B0AC1
:100CD600FAF9F8AF15AE14AD13AC1212104F7499A1
:0C0CE6002BF58274113AF583E493F50FAE
:100CF200D007D006D005D004D003D002D001D00056
:0B0D0200D0D0D082D083D0F0D0E032FF
:0311C900011C0105
:101093007590F0E59054F064F060277F0A7E0012AB
:1010A300114CE59054F064F06016E59054F0FF7530
:1010B300900FE590540F4FF51DE590B40FFBD3222D
:0310C300C322C382
:0110C6002207
:100F1400121093506CE51D120A650F7F770F737BD7
:100F24000F677D0F5B7E0F7CB70F70BB0F64BD0F27
:100F340058BE0F79D70F6DDB0F61DD0F55DE0F76CD
:100F4400E70F6AEB0F5EED0F52EE00000F827F0198
:100F5400227F02227F03227F04227F05227F062232
:100F64007F07227F08227F09227F0A227F0B227FAC
:100F74000C227F0D227F0E227F0F227F10227F0002
:040F8400227F0022A6
:10114C00D3EF9400EE940040147D787C00ED1D707C
:0D115C00011CED4C70F7EF1F70E61E80E3E4
:011169002263
:0711D70000000000000022EF
:101199003F065B4F666D7D077F6F777C395E79719E
:0111A9000045
:0A11CC000808000000000000000009
:100F8800E4F516E516B40800504D900F99F8282896
:100F980073020FB1020FB5020FBD020FC1020FC9D4
:100FA800020FCD020FD5020FD9D2A28002C2A2D25F
:100FB800A3D2A48022D2A28002C2A2C2A3D2A480B9
:100FC80016D2A28002C2A2D2A3C2A4800AD2A28050
:100FD80002C2A2C2A3C2A474082516F8E6F5807F4F
:100FE800017E0012114CE4F5800516E516C394083D
:020FF800409126
:010FFA0022D4
:10118500D2A01211D7D2A11211D7C2A01211D7C263
:04119500A10211D7CB
:0F11BA00C2A01211D7D2A11211D7D2A00211D701
:020FFB008F194C
:100FFD00E4F51AF51BF51AE519C41313135401245E
:10100D00FF92A0E51925E0F5191211D7D2A1121101
:10101D00D7C2A11211D7051AE51AC3940840D8D228
:10102D00A01211D7D2A130A011051BE51BD394C876
:10103D0040F4C2A11211D77F0022C2A11211D77F95
:01104D0001A1
:01104E00227F
:1010C700E4F519F51AD2A01211D7E4F519D2A11235
:1010D70011D7E51A25E0F51AA2A0E433421A121136
:1010E700D7C2A11211D70519E519C3940840DEAF7D
:0110F7001ADE
:0110F80022D5
:10116A008F168D178B18121185AF16120FFBAF173A
:0B117A00120FFBAF18120FFB0211BA9E
:041126008F168D177C
:10112A00121185AF16120FFBAF17120FFB121185A2
:10113A00E51604FF120FFB1210C78F181211BAAF6F
:01114A00188C
:01114B002281
:10080000020A42E86480F8E933E83360110460F0DA
:10081000ED33EC337009E8FCE9FDEAFEEBFF22045E
:1008200060DED3EB9FEA9EE99DE8C2E78CF0C2F759
:1008300095F0400CE8CCF8E9CDF9EACEFAEBCFFB25
:10084000120A0D85D0F05804700320D5B3E8047067
:10085000075002B2D5020A4C92D5EC0460F7E4CC02
:10086000C0E0C398F8603B94186008400DD0E0FBEE
:10087000020A24E4FBFAC9FC8028E830E406E4C953
:10088000FBE4CAFCE830E305E4C9CACBFCE8540742
:100890006010F8C3E913F9EA13FAEB13FBEC13FC4D
:1008A000D8F130F52FC3E49CFCEF9BFFEE9AFEEDF0
:1008B00099FDD0E0FBEF4E4D4C701222DB03020A93
:1008C00049EC2CFCEF33FFEE33FEED33FDED30E76A
:1008D000EB020A24EF2BFFEE3AFEED39FDD0E0FBF0
:1008E00050130BBB0003020A4CED13FDEE13FEEF99
:0808F00013FFEC13FC020A24C3
:1008F800020A4CEC5D046005E859047003020A42E0
:10090800120A0D580460F6EC4860F2EC7004FDFE23
:10091800FF22C860DB2481C85009C39860025006D2
:10092800020A499850CAF582E9294B4A7005AB82F8
:10093800020A3875F0007C1A7880C3EF9BEE9AEDB6
:1009480099400DC3EF9BFFEE9AFEED99FDE842F04A
:10095800DC23ACF0D0E0FFD0E0FED0E0FDAB82209D
:10096800E7101BEB60BAEC2CFCEF33FFEE33FEED27
:1009780033FD020A24E803F830E705C0F075F000FB
:10098800EF2FFFEE33FEED33FD40B830E7C280AA0B
:1009980075F020800E75F010800575F0087D007EDA
:1009A800007F003392D530D503120A57EC3340103C
:1009B800EF33FFEE33FEED33FDEC33FCD5F0ED22E3
:0E09C800E5F0247EA2D513CC92E7CDCEFF221F
:1009D600EDD2E7CD33EC3392D524814006E4FFFE19
:1009E600FDFC22FCE4CFCECDCC24E0501174FF8078
:1009F600EDC3CC13CCCD13CDCE13CECF13CF047015
:070A0600F030D5DE020A57B3
:100A0D00E9D2E7C933E833F892D5EDD2E7CD33EC2F
:070A1D0033FC5002B2D522A8
:100A2400EC30E7100FBF000C0EBE00080DBD000433
:100A34000BEB6014A2D5EB13FCED92E7FD2274FFDF
:100A4400FCFDFEFF22E480F8A2D574FF13FC7D8038
:030A5400E480EF4C
:03000000020E8865
:0C0E8800787FE4F6D8FD758120020ECFC3
:10104F00C2D5E830E70FB2D5E4C39BFBE49AFAE4CC
:10105F0099F9E498F8EC30E717B2D5121085120A17
:10106F00C7E4C39BFBE49AFAE499F9E498F8800388
:10107F00120AC730D50DE4C39FFFE49EFEE49DFD29
:04108F00E49CFC22BF
:0E0A5700C3E49FFFE49EFEE49DFDE49CFC22B0
:100A6500D083D082F8E4937012740193700DA3A320
:100A750093F8740193F5828883E473740293686034
:060A8500EFA3A3A380DF34
:100E9400020D0DE493A3F8E493A34003F68001F25A
:100EA40008DFF48029E493A3F85407240CC8C3335F
:100EB400C4540F4420C8834004F456800146F6DF2E
:100EC400E4800B01020408102040809011C9E47EE4
:100ED400019360BCA3FF543F30E509541FFEE49323
:100EE400A360010ECF54C025E060A840B8E493A3EA
:100EF400FAE493A3F8E493A3C8C582C8CAC583CA15
:100F0400F0A3C8C582C8CAC583CADFE9DEE780BECC
:0111D6000018
:100A8B0075F008758200EF2FFFEE33FECD33CDCC22
:100A9B0033CCC58233C5829BED9AEC99E5829840A5
:100AAB000CF582EE9BFEED9AFDEC99FC0FD5F0D682
:100ABB00E4CEFBE4CDFAE4CCF9A88222B800C1B9AC
:100ACB000059BA002DEC8BF084CFCECDFCE5F0CBEA
:100ADB00F97818EF2FFFEE33FEED33FDEC33FCEB23
:100AEB0033FB10D703994004EB99FB0FD8E5E4F9DE
:100AFB00FA227818EF2FFFEE33FEED33FDEC33FCCB
:100B0B00C933C910D7059BE99A4007EC9BFCE99ABE
:100B1B00F90FD8E0E4C9FAE4CCFB2275F010EF2F03
:100B2B00FFEE33FEED33FDCC33CCC833C810D70703
:100B3B009BEC9AE899400AED9BFDEC9AFCE899F83E
:0E0B4B000FD5F0DAE4CDFBE4CCFAE4C8F922D1
:00000001FF
